:100000000C9489000C94B1000C94B1000C94B100D4
:100010000C94B1000C94B1000C94B1000C94B1009C
:100020000C94B1000C94B1000C94B1000C94B1008C
:100030000C94B1000C94B1000C94B1000C94B1007C
:100040000C94BA070C94B1000C94A40A0C94D60A30
:100050000C94B1000C94B1000C94B1000C94B1005C
:100060000C94B1000C94B100405243303030303128
:100070002020202020202020202020202020202080
:100080002020202020202020202020202020202070
:100090002020202020202020202020202020202060
:1000A000202020202020202020202020202025303B
:1000B000393223005743303030303100000000081F
:1000C000000201000003040700000000000000001F
:1000D00001020408102040800102040810200102DF
:1000E00004081020040404040404040402020202AC
:1000F000020203030303030300000000250028009D
:100100002B0000000000240027002A00B300060B8B
:10011000D90011241FBECFEFD8E0DEBFCDBF11E064
:10012000A0E0B1E0E6E6F6E202C005900D92A6344A
:10013000B107D9F722E0A6E4B1E001C01D92A438CE
:10014000B207E1F711E0C0E1D1E004C02297FE015F
:100150000E94E10FCC30D107C9F70E944A0B0C94E2
:1001600026130C94000040E050E0BA0187EA91E0C9
:100170000E94920720E030E0A90160E070E084E98D
:1001800091E00E94BD0640E050E0BA0181E691E0B6
:100190000E94920720E030E0A90160E070E08EE468
:1001A00091E00E94BD0660E271E088E491E00C9469
:1001B000C40C88E491E00C94560C26E040E052EC2C
:1001C00061E070E083EE91E00E94420A68EC70E02A
:1001D00088E491E00E94870C60E08EE00E94F008C5
:1001E00060E08FE00E94F00860E080E10E94F0088B
:1001F00060E081E10E94F00860E082E10E94F00886
:1002000061E089E00E94F00864E971E087EA91E02A
:100210000E9448076BE671E084E991E00E94EB06DA
:1002200048EC50E060E070E084E991E00E947306E1
:100230006EE471E081E691E00E9448076EE475E0AB
:100240008EE491E00E94EB0640E050E0BA018EE4BB
:1002500091E00C947306AF92BF92CF92DF92EF922F
:10026000FF920F931F9380914601909147011816BA
:1002700019062CF18EE00E944B08BC01882777FDFF
:100280008095982F1F921F921F922FEF2F93A12CD2
:10029000B12C6501EE24EA9413E0F12E00E010E0A9
:1002A00020E030E0A9010E940F0C89E00E9468085C
:1002B0000F900F900F900F9087EA91E002C081E6B7
:1002C00091E01F910F91FF90EF90DF90CF90BF9042
:1002D000AF900C94EF061F93CF93DF9300D000D024
:1002E00000D0CDB7DEB783EE91E00E945F0918160B
:1002F0001906DCF54AE063EE71E0CE0101960E943A
:10030000E70BBE016F5F7F4F88E491E00E94510DC3
:10031000CE0101960E94560C83EE91E00E94BB092B
:1003200064EB70E0CE0101960E94FB0DBE016F5F91
:100330007F4F88E491E00E94B70E182FCE010196FE
:100340000E94560C112389F081E090E090934701C0
:100350008093460168E670E083EE91E00E94810B95
:100360006AE083EE91E00E94B20B26960FB6F894F5
:10037000DEBF0FBECDBFDF91CF911F9108958F9249
:100380009F92AF92BF92CF92DF92EF92FF920F9324
:100390001F93CF93DF93CDB7DEB762970FB6F89474
:1003A000DEBF0FBECDBF8C01EDB6FEB6DC011496EC
:1003B0004D915C9115974F5F5F4FEDB7FEB7E41B12
:1003C000F50B0FB6F894FEBF0FBEEDBF8DB79EB70D
:1003D00001965C0120E030E0BC01C8010E94E90EFA
:1003E000F501D8011496CD90DC90159720E030E00F
:1003F00060E070E0CB012C153D0591F0A1912F5FDD
:100400003F4F4A2F42034001439F900C1124AA24DE
:1004100097FCA094BA2C680D791D8A1D9B1DEBCF0B
:1004200023E630E040E050E00E94B50FAB01BC0194
:100430002AE0CE010D960E94AD0D38E4A32EB12C1A
:1004400089899A89A81AB90AD80114968D919C9124
:100450001597A81AB90A60E271E0CE0107960E94CA
:10046000C40C812C912CBE01695F7F4FCE01019697
:100470008A149B04ACF40E94480D68E171E0CE013F
:1004800001960E946D0EBC01CE0107960E94310DAF
:10049000CE0101960E94560CBFEF8B1A9B0AE3CF48
:1004A0000E94480DBE01635F7F4FCE0101960E94FE
:1004B0005A0EBC01CE0107960E94310DCE01019665
:1004C0000E94560C6BE071E0CE0101960E94C40CB4
:1004D000B801CE0101960E945A0E6DE071E00E94B3
:1004E0006D0EBE01695F7F4F0E945A0E6FE071E092
:1004F0000E946D0EBC0183EE91E00E94A40BCE0120
:1005000001960E94560C6AE083EE91E00E94B20BC5
:1005100083EE91E00E94BB09CE0107960E94560C23
:10052000CE010D960E94560C0FB6F894FEBE0FBE7B
:10053000EDBE62960FB6F894DEBF0FBECDBFDF9161
:10054000CF911F910F91FF90EF90DF90CF90BF90D0
:10055000AF909F908F900895EF92FF920F931F930B
:10056000CF93DF93CDB7DEB7E6970FB6F894DEBF33
:100570000FBECDBF8C0122E030E040E050E0BC0176
:10058000CE01C1960E94330F25E030E042E050E0FA
:10059000B801CE018B960E94330F25E430E045E090
:1005A00050E0B801CE0185960E94330F60E271E001
:1005B000CE014F960E94C40C60E271E0CE014996D4
:1005C0000E94C40C60E271E0CE0143960E94C40C0C
:1005D00021E030E040E050E0BE016F5C7F4FCE0193
:1005E00001960E94330F61E171E0CE0101960E94F5
:1005F000CA0E182FCE0101960E94560C112379F1D4
:1006000063E171E0CE01C1960E94CA0E882381F099
:1006100066E171E0CE018B960E94CA0E882341F0FC
:10062000CE0185960E94780F709347016093460132
:100630006AE171E0CE01C1960E94CA0E882379F06A
:1006400066E171E0CE018B960E94CA0E882339F0D4
:10065000CE0185960E94780F89E00E94680821E00B
:1006600030E040E050E0BE016F5C7F4FCE01079666
:100670000E94330F61E171E0CE0107960E94CA0E1D
:1006800081111AC021E030E040E050E0BE016F5C13
:100690007F4FCE0101960E94330F6DE171E0CE01D4
:1006A00001960E94CA0E11E0811101C010E0CE0136
:1006B00001960E94560C01C011E0CE0107960E94DF
:1006C000560C112309F4C5C122E030E041E050E0AE
:1006D000BE016F5C7F4FCE0101960E94330F64E133
:1006E00071E0CE0101960E94CA0E182FCE0101962C
:1006F0000E94560C112309F446C066E171E0CE0158
:100700008B960E94CA0E8823F1F160914601709188
:1007100047014AE0CE0101960E94810DBE016F5F44
:100720007F4FCE0149960E94510DCE0101960E9445
:10073000560C00E010E0E2E0EE2EF12C8D8D9E8D47
:100740009701281B390B0217130748F468E171E081
:10075000CE0143960E94370E0F5F1F4FEFCFBE01B1
:100760006D5E7F4FCE014F960E94300EBE01675ED8
:100770007F4FCE014F960E94300E60E271E0CE01B5
:1007800043960E94690D22E030E041E050E0BE0156
:100790006F5C7F4FCE0101960E94330F6BE171E0D9
:1007A000CE0101960E94CA0E182FCE0101960E941A
:1007B000560C112309F401C166E171E0CE018B965C
:1007C0000E94CA0E882309F4F8C08FE00E944B08EB
:1007D0004AE0BC01CE0101960E94810DBE016F5F0F
:1007E0007F4FCE0149960E945D0DCE0101960E9479
:1007F000560C00E010E074E0E72EF12C8D8D9E8DFC
:100800009701281B390B0217130748F468E171E0C0
:10081000CE0143960E94370E0F5F1F4FEFCFBE01F0
:100820006D5E7F4FCE014F960E94300EBE01675E17
:100830007F4FCE014F960E94300E60E271E0CE01F4
:1008400043960E94690D80E10E944B084AE0BC017A
:10085000CE0101960E94810DBE016F5F7F4FCE01D8
:1008600049960E945D0DCE0101960E94560C00E053
:1008700010E064E0E62EF12C8D8D9E8D9701281BF3
:10088000390B0217130748F468E171E0CE01439673
:100890000E94370E0F5F1F4FEFCFBE016D5E7F4F7F
:1008A000CE014F960E94300EBE01675E7F4FCE0193
:1008B0004F960E94300E60E271E0CE0143960E9496
:1008C000690D81E10E944B084AE0BC01CE0101960E
:1008D0000E94810DBE016F5F7F4FCE0149960E943D
:1008E0005D0DCE0101960E94560C00E010E054E030
:1008F000E52EF12C8D8D9E8D9701281B390B02174B
:10090000130748F468E171E0CE0143960E94370E68
:100910000F5F1F4FEFCFBE016D5E7F4FCE014F9631
:100920000E94300EBE01675E7F4FCE014F960E943F
:10093000300E60E271E0CE0143960E94690D82E1C3
:100940000E944B084AE0BC01CE0101960E94810D35
:10095000BE016F5F7F4FCE0149960E945D0DCE01B3
:1009600001960E94560C00E010E044E0E42EF12CC9
:100970008D8D9E8D9701281B390B0217130748F4A4
:1009800068E171E0CE0143960E94370E0F5F1F4F62
:10099000EFCFBE016D5E7F4FCE014F960E94300EAD
:1009A000BE01675E7F4FCE014F960E94300E60E21F
:1009B00071E0CE0143960E94690D00E410E08BA126
:1009C0009CA1081B190BE12CF12CE016F10654F444
:1009D0006FE171E0CE014F960E94370E3FEFE31AB0
:1009E000F30AF3CF22E030E041E050E0BE016F5C5B
:1009F0007F4FCE010D960E94330F6DE171E0CE0165
:100A000007960E94C40CBE01635F7F4FCE0107961C
:100A10000E945A0EBE01655D7F4F0E945A0EBE01B4
:100A2000615E7F4F0E945A0EBC01CE0101960E946A
:100A3000480DCE0101960E94BF01CE0101960E9491
:100A4000560CCE0107960E94560CCE010D960E94C0
:100A5000560CCE0143960E94560CCE0149960E9438
:100A6000560CCE014F960E94560CCE0185960E94E0
:100A7000560CCE018B960E94560CCE01C1960E9458
:100A8000560CE6960FB6F894DEBF0FBECDBFDF91D1
:100A9000CF911F910F91FF90EF9008954F925F9229
:100AA0006F927F92AF92BF92CF92DF92EF92FF92BE
:100AB0000F931F93CF93DF93CDB7DEB762970FB637
:100AC000F894DEBF0FBECDBF0DB71EB783EE91E029
:100AD0000E945F09181619060CF0EBC04AE063EE9D
:100AE00071E0CE0101960E94E70BBE016F5F7F4F60
:100AF00088E491E00E94510DCE0101960E94560CAF
:100B000083EE91E00E94BB0921E030E040E050E03C
:100B100068E471E0CE0107960E94330F6BE071E04C
:100B2000CE0107960E94CA0E8823E1F020914C0165
:100B300030914D014AE450E068E471E0CE01019645
:100B40000E94330F6FE071E0CE0101960E94CA0E41
:100B5000FF24F394811101C0F12CCE0101960E9473
:100B6000560C01C0F12CCE0107960E94560CFF20B6
:100B700009F49FC0ADB6BEB66DE071E0CE0101963E
:100B80000E94C40CBE016F5F7F4F88E491E00E9419
:100B90002F0F9C0141E050E068E471E0CE010D961A
:100BA0000E94330FCE0101960E94560C6DE071E059
:100BB000CE0101960E94C40CBE016F5F7F4F88E496
:100BC00091E00E942F0FAC014F5F5F4F2AE430E0AD
:100BD00068E471E0CE0107960E94330FCE010196C2
:100BE0000E94560C49895A894F5F5F4F8DB79EB757
:100BF000841B950B0FB6F8949EBF0FBE8DBF019658
:100C00007C0120E030E0BC01CE010D960E94E90E8F
:100C1000F70189899A8920E030E0C12CD12C760136
:100C20002817390789F061912F5F3F4F6203A001B8
:100C3000639F500D1124662757FD6095762FC40ED3
:100C4000D51EE61EF71EECCFCE0107960E94780F48
:100C50002B013C01C701B60123E630E040E050E043
:100C60000E94B50F641575058605970579F4BE01D8
:100C7000635F7F4FCE0101960E94480DCE01019621
:100C80000E94AC02CE0101960E94560C60E271E017
:100C900088E491E00E94690DCE0107960E94560CEF
:100CA000CE010D960E94560C0FB6F894BEBE0FBE34
:100CB000ADBE0FB6F8941EBF0FBE0DBF62960FB645
:100CC000F894DEBF0FBECDBFDF91CF911F910F9182
:100CD000FF90EF90DF90CF90BF90AF907F906F909C
:100CE0005F904F9008950F931F93FC0142835383AD
:100CF000648375830681178120853185040F151F54
:100D0000261F371F02871387248735871F910F916E
:100D100008950F931F93FC01028513852485358563
:100D2000401B510B620B730B77FD02C0808901C021
:100D300080E01F910F9108950F931F93CF93DF933E
:100D4000EC01EE85FF85309709F009950E940408B3
:100D50006E837F83888799870A811B812C813D81DF
:100D6000060F171F281F391F0A871B872C873D87EF
:100D7000DF91CF911F910F910895FC0185E291E0E1
:100D80009183808381E0808B7787668716821782C4
:100D900010861186F28BE18B228333834483558343
:100DA000228733874487558708950F931F93FC014B
:100DB000468357836087718702811381248135813F
:100DC000040F151F261F371F0287138724873587B7
:100DD0001F910F910895FC017787668708958F9280
:100DE0009F92AF92BF92CF92DF92EF92FF920F93BA
:100DF0001F93CF93DF93EC01EE85FF85309709F0C9
:100E000009950E9404086B017C018E015E012EE1B0
:100E1000A20EB11C812C912C89A99AA9881599053B
:100E200024F1D80153968D919C9154970097C1F06D
:100E3000BFEF8B1A9B0ADC01ED91FC910280F381DC
:100E4000E02DB701A6010995882351F0F8018389A7
:100E50009489DC01ED91FC910480F581E02D0995E8
:100E60000E5F1F4F0A151B05B9F60E940408AB015F
:100E7000BC01CE01DF91CF911F910F91FF90EF90B8
:100E8000DF90CF90BF90AF909F908F900C94D5063D
:100E900020E030E0FC01E20FF31F0388F489E02D2D
:100EA000309759F00188F289E02DDB0151964D9180
:100EB0005C915297E417F50719F12E5F3F4F2E31E1
:100EC000310541F7FC0120E030E043895489452B8E
:100ED00079F4F901EE0FFF1FE80FF91F748B638B94
:100EE000FC0121A932A92F5F3F4F32AB21AB08C0D3
:100EF0002F5F3F4F32962F30310539F780E008954C
:100F000081E0089520E030E0FC01E20FF31F148A35
:100F1000138A2E5F3F4F2E313105B1F7FC0112AA23
:100F200011AA0895CF92DF92EF92FF92CF93DF93B1
:100F3000EC016A017B0120E030E0A90160E070E093
:100F40000E94BD068FE291E0998388831AAA19AAAC
:100F5000CE010E948207E881F9810190F081E02DA5
:100F6000B701A601CE01DF91CF91FF90EF90DF9006
:100F7000CF9009941F920F920FB60F9211242F93C6
:100F80003F938F939F93AF93BF938091DB01909199
:100F9000DC01A091DD01B091DE013091DA0123E0A6
:100FA000230F2D3720F40196A11DB11D05C026E8A1
:100FB000230F0296A11DB11D2093DA018093DB015E
:100FC0009093DC01A093DD01B093DE018091DF01FD
:100FD0009091E001A091E101B091E2010196A11D83
:100FE000B11D8093DF019093E001A093E101B093E4
:100FF000E201BF91AF919F918F913F912F910F90FF
:101000000FBE0F901F9018952FB7F8946091DB01D9
:101010007091DC018091DD019091DE012FBF089578
:10102000789484B5826084BD84B5816084BD85B5C3
:10103000826085BD85B5816085BDEEE6F0E080818A
:1010400081608083E1E8F0E01082808182608083AB
:10105000808181608083E0E8F0E08081816080832E
:10106000E1EBF0E0808184608083E0EBF0E0808160
:1010700081608083EAE7F0E0808184608083808102
:1010800082608083808181608083808180688083AA
:101090001092C10008958E3008F08E508770209114
:1010A0000A0190E4299F90011124822B80937C00F7
:1010B00080917A00806480937A0080917A0086FD26
:1010C000FCCF809178002091790090E0922B0895D8
:1010D0001F93CF93DF93182FEB0161E00E94F0087C
:1010E000209711F460E004C0CF3FD10539F461E0EE
:1010F000812FDF91CF911F910C942909E12FF0E00E
:10110000E454FF4FE491E330F9F048F4E130B9F0F2
:10111000E230A1F584B5806284BDC8BD34C0E7303B
:10112000E9F0E83019F1E43049F5809180008062FF
:1011300080938000D0938B00C0938A0024C084B534
:10114000806884BDC7BD1FC0809180008068809387
:101150008000D0938900C093880015C08091B000B2
:1011600080688093B000C093B3000DC08091B00040
:1011700080628093B000C093B40005C0C038D10530
:101180000CF0B5CFAFCFDF91CF911F910895833091
:1011900081F028F4813099F08230A1F008958730F1
:1011A000A9F08830B9F08430D1F4809180008F7D2F
:1011B00003C0809180008F7780938000089584B56C
:1011C0008F7702C084B58F7D84BD08958091B00073
:1011D0008F7703C08091B0008F7D8093B000089519
:1011E000CF93DF9390E0FC01E053FF4F2491FC018B
:1011F000EC51FF4F8491882349F190E0880F991FAB
:10120000FC01EE5FFE4FA591B49188509F4FFC0109
:10121000C591D4919FB7611108C0F8948C91209525
:1012200082238C93888182230AC0623051F4F8941F
:101230008C91322F309583238C938881822B8883E5
:1012400004C0F8948C91822B8C939FBFDF91CF9137
:1012500008950F931F93CF93DF931F92CDB7DEB7FF
:10126000282F30E0F901E454FF4F8491F901E05355
:10127000FF4F1491F901EC51FF4F04910023C9F085
:10128000882321F069830E94C7086981E02FF0E07C
:10129000EE0FFF1FE850FF4FA591B4919FB7F89450
:1012A0008C91611103C01095812301C0812B8C9317
:1012B0009FBF0F90DF91CF911F910F910895FC0177
:1012C000818D228D90E0805C9F4F821B91098F73EE
:1012D00099270895FC01918D828D981731F0828DA8
:1012E000E80FF11D858D90E008958FEF9FEF089531
:1012F000FC01918D828D981761F0828DDF01A80F1E
:10130000B11D5D968C91928D9F5F9F73928F90E03F
:1013100008958FEF9FEF08958CEF9AE0892B49F0A5
:1013200080E090E0892B29F00E94FC0A81110C9446
:1013300000000895FC01848DDF01A80FB11DA35AA0
:10134000BF4F2C91848D90E001968F739927848FE5
:10135000A689B7892C93A089B1898C9180648C93DC
:10136000938D848D981306C00288F389E02D8081C7
:101370008F7D80830895CF93DF93EC01888D882340
:10138000C9F0EA89FB89808185FD05C0A889B989F2
:101390008C9186FD0FC00FB607FCF5CF808185FFCD
:1013A000F2CFA889B9898C9185FFEDCFCE010E943B
:1013B0009A09E7CFDF91CF910895CF92DF92FF9204
:1013C0000F931F93CF93DF931F92CDB7DEB76C01BE
:1013D00081E0D60158968C9358975B969C915B97C9
:1013E0005C968C915C97981307C05096ED91FC9198
:1013F0005197808185FD2EC0F601038D10E00F5FAF
:101400001F4F0F731127F02EF601848DF81211C0B3
:101410000FB607FCF9CFD6015096ED91FC9151978C
:10142000808185FFF1CFC60169830E949A09698195
:10143000EBCF838DE80FF11DE35AFF4F6083D60198
:101440005B960C935B975296ED91FC91539780813C
:1014500080620CC0D6015696ED91FC91579760833F
:101460005096ED91FC91519780818064808381E05A
:1014700090E00F90DF91CF911F910F91FF90DF903F
:10148000CF900895BF92CF92DF92EF92FF92CF93C9
:10149000DF93EC016A017B01B22EE889F98982E0D1
:1014A0008083411581EE580761057105A1F060E068
:1014B00079E08DE390E0A70196010E94930F2150FF
:1014C00031094109510956954795379527952115B9
:1014D00080E1380798F0E889F989108260E874E8BB
:1014E0008EE190E0A70196010E94930F21503109EF
:1014F000410951095695479537952795EC85FD8506
:101500003083EE85FF852083188EEC89FD89B082BB
:10151000EA89FB89808180618083EA89FB898081F7
:1015200088608083EA89FB89808180688083EA897A
:10153000FB8980818F7D8083DF91CF91FF90EF9039
:10154000DF90CF90BF9008951F920F920FB60F9229
:1015500011242F938F939F93EF93FF93E091F301C7
:10156000F091F4018081E091F901F091FA0182FD9E
:1015700012C090818091FC018F5F8F732091FD01DB
:10158000821751F0E091FC01F0E0ED51FE4F958F94
:101590008093FC0101C08081FF91EF919F918F9119
:1015A0002F910F900FBE0F901F9018951F920F92C2
:1015B0000FB60F9211242F933F934F935F936F9326
:1015C0007F938F939F93AF93BF93EF93FF9383EE9C
:1015D00091E00E949A09FF91EF91BF91AF919F9185
:1015E0008F917F916F915F914F913F912F910F90CC
:1015F0000FBE0F901F90189583EE91E00E945F0937
:1016000021E0892B09F420E0822F08951092E60151
:101610001092E50188EE93E0A0E0B0E08093E7014E
:101620009093E801A093E901B093EA0189E391E086
:101630009093E4018093E30185EC90E09093F001B6
:101640008093EF0184EC90E09093F2018093F1019C
:1016500080EC90E09093F4018093F30181EC90E0B2
:101660009093F6018093F50182EC90E09093F8015D
:101670008093F70186EC90E09093FA018093F90152
:101680001092FC011092FD011092FE011092FF01D8
:10169000089508950E9410080E94490B0E94DD00E1
:1016A000CCE8D9E00E942B012097E1F30E948C093D
:1016B000F9CFCF92DF92EF92FF920F931F93CF93C8
:1016C000DF937C016A01EB0100E010E00C151D05C1
:1016D00071F06991D701ED91FC910190F081E02DBD
:1016E000C7010995892B19F00F5F1F4FEFCFC80174
:1016F000DF91CF911F910F91FF90EF90DF90CF90EE
:101700000895EF92FF920F931F93CF93DF938C0175
:101710007B01C0E0D0E0F701EC0FFD1F6491662370
:1017200059F0F801A081B181ED91FC91C8010995B2
:10173000892B11F02196EFCFCE01DF91CF911F9130
:101740000F91FF90EF900895DC01ED91FC91DB018A
:1017500014964D915C9115976D917C910280F38167
:10176000E02D0994DC01ED91FC910190F081E02DD8
:1017700009940F931F93CF93DF93EC010E94040809
:10178000688779878A879B87E881F9810680F78156
:10179000E02DCE01099597FF15C00E940408088529
:1017A00019852A853B85601B710B820B930B0C817D
:1017B0001D812E813F81601771078207930720F3F7
:1017C0008FEF9FEFDF91CF911F910F910895EF92CF
:1017D000FF920F931F93CF93DF93EC018B01E42EC5
:1017E00060E271E00E94C40CC8010E94B90BFF24A2
:1017F000E7FCF09497FD0BC08E159F0541F0682F14
:10180000CE010E94470EC8010E94B90BF3CFCE0152
:10181000DF91CF911F910F91FF90EF9008954F921C
:101820005F926F927F92AF92BF92CF92DF92EF92D0
:10183000FF920F931F93CF93DF93CDB7DEB72901AC
:101840003A01621B730B840B950B29893A894B89EA
:101850005C892A193B094C095D09298B3A8B4B8B12
:101860005C8B9B01AC0169897A898B899C890E9478
:10187000830FE418F50806091709A80197010E94CB
:10188000B50F2A0D3B1D4C1D5D1DCA01B901DF912D
:10189000CF911F910F91FF90EF90DF90CF90BF906D
:1018A000AF907F906F905F904F900895FC01808182
:1018B00091810C948C10CF93DF93EC0188819981F6
:1018C000009711F00E948C10198218821D821C82D0
:1018D0001B821A82DF91CF9108950F931F93CF93AC
:1018E000DF93EC018B016F5F7F4F888199810E94AC
:1018F0001B11009731F0998388831B830A8381E051
:1019000001C080E0DF91CF911F910F910895CF9397
:10191000DF93EC0188819981892B29F08A819B8151
:101920008617970760F4CE010E946D0C882341F062
:101930008C819D81892B19F4E881F981108281E0E5
:10194000DF91CF910895EF92FF920F931F93CF9362
:10195000DF93EC017B018A01BA010E94870C81119F
:1019600004C0CE010E945B0C07C01D830C83B7012D
:10197000888199810E942E12CE01DF91CF911F9113
:101980000F91FF90EF900895FC0111821082138255
:101990001282158214826115710559F0FB010190C4
:1019A0000020E9F7AF0141505109461B570B0C9439
:1019B000A30C0895EF92FF920F931F93CF93DF93A1
:1019C000EC017B018A01BA010E94870C811104C0DD
:1019D000CE010E945B0C07C01D830C83B701888178
:1019E00099810E940C12CE01DF91CF911F910F912E
:1019F000FF90EF9008950F931F93CF93DF938C0187
:101A0000EB01FC0180819181009799F04281538123
:101A10002C813D814217530750F0688179810E94E3
:101A20002E128C819D81F8019583848313C00E94BE
:101A30008C1088819981F801918380838A819B81B0
:101A4000938382838C819D819583848319821882FC
:101A50001B821A821D821C82DF91CF911F910F91F0
:101A60000895CF93DF93EC01FB018617970761F090
:101A7000608171816115710529F0448155810E9451
:101A8000A30C02C00E945B0CCE01DF91CF910895A0
:101A9000FC011182108213821282158214820C942E
:101AA000310DCF93DF93EC018617970711F00E9459
:101AB000FB0CCE01DF91CF910895CF93DF93EC0122
:101AC0008617970711F00E94FB0CCE01DF91CF9192
:101AD0000895CF93DF93EC016115710561F0FB016F
:101AE00001900020E9F7AF0141505109461B570B07
:101AF0000E94A30C02C00E945B0CCE01DF91CF912B
:101B000008950F931F93CF93DF93CDB7DEB76297FE
:101B10000FB6F894DEBF0FBECDBF8C01CB01F8012C
:101B200011821082138212821582148250E0BE014B
:101B30006F5F7F4F0E945E12BE016F5F7F4FC801D3
:101B40000E94690D62960FB6F894DEBF0FBECDBF3E
:101B5000DF91CF911F910F9108950F931F93CF9312
:101B6000DF93CDB7DEB7A2970FB6F894DEBF0FBEF6
:101B7000CDBF8C01CB01BA01F80111821082138212
:101B800012821582148230E0AE014F5F5F4F0E94D7
:101B90007412BE016F5F7F4FC8010E94690DA2964B
:101BA0000FB6F894DEBF0FBECDBFDF91CF911F916E
:101BB0000F9108950F931F93CF93DF9300D0CDB76C
:101BC000DEB78C016115710561F0CB0169837A8301
:101BD0000E941312AC0169817A81C8010E94DA0C5B
:101BE00002C00E945B0CC8010F900F90DF91CF9153
:101BF0001F910F910895FC011182108213821282AD
:101C0000158214820C94DA0DEF92FF920F931F93BA
:101C1000CF93DF93EC017B010C811D816115710570
:101C200011F480E016C04115510591F0040F151F05
:101C3000B8010E94870C8823A1F3288139818C8107
:101C40009D81B701820F931F0E942E121D830C836A
:101C500081E0DF91CF911F910F91FF90EF90089558
:101C6000FB0144815581608171810C94040E6115E2
:101C7000710559F0FB0101900020E9F7AF014150D7
:101C80005109461B570B0C94040E80E00895CF9326
:101C9000DF9300D0CDB7DEB769831A8241E050E010
:101CA000BE016F5F7F4F0E94040E0F900F90DF9177
:101CB000CF910895CF93DF93EC01FB0144815581CF
:101CC000608171810E94040E811103C0CE010E94C7
:101CD0005B0CCE01DF91CF910895CF93DF93EC01A0
:101CE0006115710569F0FB0101900020E9F7AF0172
:101CF00041505109461B570B0E94040E811103C02D
:101D0000CE010E945B0CCE01DF91CF910895CF935D
:101D1000DF93DC01ED91FC91EB01A881B981309753
:101D200011F01097C9F4109759F0EB012C813D8107
:101D3000232B31F08C9190E091958195910914C0FD
:101D4000309781F0DC0114968D919C911597892B29
:101D500049F0808190E008C0BD01CF01DF91CF91B3
:101D60000C94251280E090E0DF91CF910895FC0162
:101D700044815581FB01248135814217530741F489
:101D80000E94870E21E0892B09F020E0822F089520
:101D900080E00895FC0124813581232B31F421E07A
:101DA00061157105A1F0FB0108C0FC0180819181E2
:101DB0006115710531F421E0FC018081882339F03F
:101DC00005C00E94251221E0892B09F020E0822F16
:101DD00008950F931F93CF93DF93EB0141155105A6
:101DE000E9F02097D9F0FC01648175812617370747
:101DF000A0F4621B730B8A0101501109601771076F
:101E000008F48B01FC0160817181620F731FA801CE
:101E1000CE010E943512C00FD11F1882DF91CF91E1
:101E20001F910F910895CF93DF93FC0184819581D9
:101E30004817590778F4C081D181FB016081718115
:101E4000CE01840F951F0E944412009719F08C1B3D
:101E50009D0B02C08FEF9FEFDF91CF91089540E07F
:101E600050E00C94130FBF92CF92DF92EF92FF924B
:101E70000F931F93CF93DF936C017B01EA018901DC
:101E80002417350720F48D2FE901042F182F60E265
:101E900071E0C6010E94C40CD70114968D919C91EB
:101EA0001597C817D907C8F48017910708F48C0153
:101EB000D701ED91FC911197E00FF11FB0801082D6
:101EC0006D917C916C0F7D1FC6010E94690DD70139
:101ED000ED91FC91E00FF11FB082C601DF91CF912F
:101EE0001F910F91FF90EF90DF90CF90BF900895DA
:101EF000FC0180819181009711F00C94E51160E064
:101F000070E0CB010895DB018F939F930E94D40F63
:101F1000BF91AF91A29F800D911DA39F900DB29F85
:101F2000900D11240895A1E21A2EAA1BBB1BFD01DE
:101F30000DC0AA1FBB1FEE1FFF1FA217B307E407A8
:101F4000F50720F0A21BB30BE40BF50B661F771F00
:101F5000881F991F1A9469F76095709580959095E0
:101F60009B01AC01BD01CF010895052E97FB1EF426
:101F700000940E94CC0F57FD07D00E94930F07FCDE
:101F800003D04EF40C94CC0F50954095309521958C
:101F90003F4F4F4F5F4F0895909580957095619595
:101FA0007F4F8F4F9F4F08950E94E50FA59F900D83
:101FB000B49F900DA49F800D911D11240895EE0FE4
:101FC000FF1F0590F491E02D0994A29FB001B39FEB
:101FD000C001A39F700D811D1124911DB29F700D32
:101FE000811D1124911D0895CF93DF9382309105B7
:101FF00010F482E090E0E0918202F091830220E010
:1020000030E0A0E0B0E0309739F1408151814817CD
:102010005907B8F04817590771F4828193811097D6
:1020200029F013969C938E9312972CC09093830261
:102030008093820227C02115310531F042175307E2
:1020400018F0A901DB0101C0EF019A01BD01DF0118
:102050000280F381E02DD7CF21153105F9F0281B3F
:10206000390B2430310580F48A819B81611571051B
:1020700021F0FB019383828304C0909383028093B9
:102080008202FE01329644C0FE01E20FF31F8193EB
:10209000919322503109398328833AC020918002DC
:1020A00030918102232B41F42091020130910301F0
:1020B0003093810220938002209100013091010130
:1020C0002115310541F42DB73EB7409104015091DF
:1020D0000501241B350BE0918002F0918102E2178B
:1020E000F307A0F42E1B3F0B2817390778F0AC013B
:1020F0004E5F5F4F2417350748F04E0F5F1F509318
:102100008102409380028193919302C0E0E0F0E06D
:10211000CF01DF91CF910895CF93DF93009709F41A
:1021200087C0FC01329713821282C0918202D09143
:102130008302209781F420813181280F391F8091FB
:102140008002909181028217930779F5F0938102C2
:10215000E09380026DC0DE0120E030E0AE17BF07E3
:1021600050F412964D915C9113979D0141155105C4
:1021700009F1DA01F3CFB383A28340815181840F47
:10218000951F8A179B0771F48D919C911197840F6D
:10219000951F02969183808312968D919C9113973F
:1021A000938382832115310529F4F0938302E09310
:1021B00082023EC0D9011396FC93EE9312974D9183
:1021C0005D91A40FB51FEA17FB0779F48081918117
:1021D000840F951F0296D90111969C938E9382814C
:1021E000938113969C938E931297E0E0F0E08A819E
:1021F0009B81009719F0FE01EC01F9CFCE01029608
:1022000028813981820F931F2091800230918102B1
:102210002817390769F4309729F410928302109235
:10222000820202C013821282D0938102C093800284
:10223000DF91CF910895A0E0B0E0E1E2F1E10C94EC
:10224000F312EC01CB01209719F40E94F40FB8C0EF
:10225000FE01E60FF71F9E0122503109E217F30736
:1022600008F4ACC0D9010D911C91119706171707FE
:10227000B8F00530110508F49FC0A8014450510979
:102280004617570708F498C002501109061B170B90
:10229000019311936D937C93CF010E948C108CC09D
:1022A0005B01A01AB10A4E01800E911EA09182021C
:1022B000B0918302612C712C60E070E0109709F4FA
:1022C00049C0A815B905C9F5ED90FC9011976701B3
:1022D00042E0C40ED11CCA14DB0478F147018A180D
:1022E0009B08640142E0C40ED11C1296BC90129768
:1022F0001396AC91B5E0CB16D10440F0B282A38323
:1023000091828082D9018D939C9309C00E5F1F4FEB
:102310000E0D1F1DF90111830083EB2DFA2F61159E
:10232000710531F0DB011396FC93EE93129744C0D4
:10233000F0938302E09382023FC06D917C911197EC
:102340006616770608F43B01BD0112960D90BC910C
:10235000A02DB4CF6091800270918102681579053B
:10236000E9F468167906D0F440910001509101011A
:102370004115510541F44DB75EB76091040170916C
:102380000501461B570BE417F507C0F4F0938102D3
:10239000E0938002F901918380830EC00E94F40FC4
:1023A0007C01009759F0A801BE010E941C12CE01C9
:1023B0000E948C10C70104C0CE0102C080E090E0F2
:1023C000CDB7DEB7EEE00C940F131F93FC019927F5
:1023D0008827BC01E89411911032E9F3193010F00C
:1023E0001E30C8F31B3251F01D3249F4689406C008
:1023F0000E948E12610F711D811D911D119110534C
:102400001A30B0F33EF490958095709561957F4FAA
:102410008F4F9F4F1F910895FB01DC0105900D9296
:102420000020E1F70895FC0105900020E9F7809570
:1024300090958E0F9F1F0895FB01DC0102C0019053
:102440000D9241505040D8F70895FB01DC018D9169
:10245000019080190110D9F3990B0895FB01DC015B
:1024600001900D920020E1F70895FB01DC0141503D
:10247000504048F001900D920020C9F701C01D9214
:1024800041505040E0F70895FB0151915523A9F0C8
:10249000BF01DC014D9145174111E1F759F4CD0120
:1024A0000190002049F04D9140154111C9F3FB0105
:1024B0004111EFCF81E090E0019708954532510539
:1024C00020F4423010F00C946912FB011082CB0111
:1024D0000895BB274A3031F4992322F4BDE2909548
:1024E00081959F4F0C94C6122532310520F422307D
:1024F00010F00C947F12FA011082CA010895BB27D4
:102500002A3051F4992342F4BDE29095809570955C
:1025100061957F4F8F4F9F4F0C94A412592F482FD6
:10252000372F262F660F771F881F991F660F771F7B
:10253000881F991F620F731F841F951F660F771FD7
:10254000881F991F0895BB27FA01A62F62177105EE
:1025500081059105330B30FB66F0AA27660F771FC4
:10256000881F991FAA1FA21710F0A21B639538504D
:10257000A9F7A05DAA3308F0A95DA19336F7B111C0
:10258000B1931082CA010C94DF12BB27FB015527BF
:10259000AA27880F991FAA1FA41710F0A41B8395C0
:1025A0005051B9F7A05DAA3308F0A95DA193009737
:1025B00079F7B111B1931192CB010C94DF12DC01C8
:1025C000FC01672F71917723E1F7329704C07C916A
:1025D0006D9370836291AE17BF07C8F308952F9271
:1025E0003F924F925F926F927F928F929F92AF92A3
:1025F000BF92CF92DF92EF92FF920F931F93CF93F0
:10260000DF93CDB7DEB7CA1BDB0B0FB6F894DEBF86
:102610000FBECDBF09942A88398848885F846E84AC
:102620007D848C849B84AA84B984C884DF80EE80F6
:10263000FD800C811B81AA81B981CE0FD11D0FB6FF
:10264000F894DEBF0FBECDBFED01089511E0C0E1EB
:10265000D1E004C0FE010E94E10F2296C231D107F1
:06266000C9F7F894FFCF5A
:1026660000008402800001000000014000250023D4
:1026760000570057430030303000575600520020B4
:102686000000000000730689069C06000000007327
:10269600068906EF0600000000DD09590B5F097880
:0626A600096A09BB0900EE
:00000001FF
